{
  "contractName": "BridgeBsc",
  "abi": [
    {
      "inputs": [
        {
          "internalType": "address",
          "name": "token",
          "type": "address"
        }
      ],
      "stateMutability": "nonpayable",
      "type": "constructor"
    },
    {
      "anonymous": false,
      "inputs": [
        {
          "indexed": false,
          "internalType": "address",
          "name": "from",
          "type": "address"
        },
        {
          "indexed": false,
          "internalType": "address",
          "name": "to",
          "type": "address"
        },
        {
          "indexed": false,
          "internalType": "uint256",
          "name": "amount",
          "type": "uint256"
        },
        {
          "indexed": false,
          "internalType": "uint256",
          "name": "date",
          "type": "uint256"
        },
        {
          "indexed": false,
          "internalType": "uint256",
          "name": "nonce",
          "type": "uint256"
        },
        {
          "indexed": false,
          "internalType": "bytes",
          "name": "signature",
          "type": "bytes"
        },
        {
          "indexed": true,
          "internalType": "enum BridgeBase.Step",
          "name": "step",
          "type": "uint8"
        }
      ],
      "name": "Transfer",
      "type": "event"
    },
    {
      "inputs": [],
      "name": "admin",
      "outputs": [
        {
          "internalType": "address",
          "name": "",
          "type": "address"
        }
      ],
      "stateMutability": "view",
      "type": "function",
      "constant": true
    },
    {
      "inputs": [
        {
          "internalType": "address",
          "name": "",
          "type": "address"
        },
        {
          "internalType": "uint256",
          "name": "",
          "type": "uint256"
        }
      ],
      "name": "processedNonces",
      "outputs": [
        {
          "internalType": "bool",
          "name": "",
          "type": "bool"
        }
      ],
      "stateMutability": "view",
      "type": "function",
      "constant": true
    },
    {
      "inputs": [],
      "name": "retrieveTokenBalanceFromContract",
      "outputs": [],
      "stateMutability": "nonpayable",
      "type": "function"
    },
    {
      "inputs": [],
      "name": "token",
      "outputs": [
        {
          "internalType": "contract IToken",
          "name": "",
          "type": "address"
        }
      ],
      "stateMutability": "view",
      "type": "function",
      "constant": true
    },
    {
      "inputs": [
        {
          "internalType": "address",
          "name": "to",
          "type": "address"
        },
        {
          "internalType": "uint256",
          "name": "amount",
          "type": "uint256"
        },
        {
          "internalType": "uint256",
          "name": "nonce",
          "type": "uint256"
        },
        {
          "internalType": "bytes",
          "name": "signature",
          "type": "bytes"
        }
      ],
      "name": "burn",
      "outputs": [],
      "stateMutability": "nonpayable",
      "type": "function"
    },
    {
      "inputs": [
        {
          "internalType": "address",
          "name": "from",
          "type": "address"
        },
        {
          "internalType": "address",
          "name": "to",
          "type": "address"
        },
        {
          "internalType": "uint256",
          "name": "amount",
          "type": "uint256"
        },
        {
          "internalType": "uint256",
          "name": "nonce",
          "type": "uint256"
        },
        {
          "internalType": "bytes",
          "name": "signature",
          "type": "bytes"
        }
      ],
      "name": "mint",
      "outputs": [],
      "stateMutability": "nonpayable",
      "type": "function"
    }
  ],
  "bytecode": "0x608060405234801561001057600080fd5b50604051610af0380380610af0833981810160405281019061003291906100d0565b80336000806101000a81548173ffffffffffffffffffffffffffffffffffffffff021916908373ffffffffffffffffffffffffffffffffffffffff16021790555080600160006101000a81548173ffffffffffffffffffffffffffffffffffffffff021916908373ffffffffffffffffffffffffffffffffffffffff1602179055505050610142565b6000815190506100ca8161012b565b92915050565b6000602082840312156100e257600080fd5b60006100f0848285016100bb565b91505092915050565b60006101048261010b565b9050919050565b600073ffffffffffffffffffffffffffffffffffffffff82169050919050565b610134816100f9565b811461013f57600080fd5b50565b61099f806101516000396000f3fe608060405234801561001057600080fd5b50600436106100625760003560e01c806352555702146100675780636be693a5146100835780637cc702401461008d5780638a94b05f146100bd578063f851a440146100d9578063fc0c546a146100f7575b600080fd5b610081600480360381019061007c91906105a3565b610115565b005b61008b610229565b005b6100a760048036038101906100a29190610635565b61038e565b6040516100b49190610868565b60405180910390f35b6100d760048036038101906100d29190610671565b6103bd565b005b6100e16104d0565b6040516100ee9190610783565b60405180910390f35b6100ff6104f4565b60405161010c9190610883565b60405180910390f35b600160009054906101000a900473ffffffffffffffffffffffffffffffffffffffff1673ffffffffffffffffffffffffffffffffffffffff166340c10f1986866040518363ffffffff1660e01b815260040161017292919061083f565b600060405180830381600087803b15801561018c57600080fd5b505af11580156101a0573d6000803e3d6000fd5b50505050600160038111156101de577f4e487b7100000000000000000000000000000000000000000000000000000000600052602160045260246000fd5b7fce5a9b86edd3b998c3948a7934c7ecf7dba73c4c5bcf56cf576bca4aa2beeb308787874288888860405161021997969594939291906107d5565b60405180910390a2505050505050565b6000600160009054906101000a900473ffffffffffffffffffffffffffffffffffffffff1673ffffffffffffffffffffffffffffffffffffffff166370a08231306040518263ffffffff1660e01b81526004016102869190610783565b602060405180830381600087803b1580156102a057600080fd5b505af11580156102b4573d6000803e3d6000fd5b505050506040513d601f19601f820116820180604052508101906102d891906106f1565b9050600160009054906101000a900473ffffffffffffffffffffffffffffffffffffffff1673ffffffffffffffffffffffffffffffffffffffff1663671afbce3060008054906101000a900473ffffffffffffffffffffffffffffffffffffffff16846040518463ffffffff1660e01b81526004016103599392919061079e565b600060405180830381600087803b15801561037357600080fd5b505af1158015610387573d6000803e3d6000fd5b5050505050565b60026020528160005260406000206020528060005260406000206000915091509054906101000a900460ff1681565b600160009054906101000a900473ffffffffffffffffffffffffffffffffffffffff1673ffffffffffffffffffffffffffffffffffffffff16639dc29fac33866040518363ffffffff1660e01b815260040161041a92919061083f565b600060405180830381600087803b15801561043457600080fd5b505af1158015610448573d6000803e3d6000fd5b5050505060006003811115610486577f4e487b7100000000000000000000000000000000000000000000000000000000600052602160045260246000fd5b7fce5a9b86edd3b998c3948a7934c7ecf7dba73c4c5bcf56cf576bca4aa2beeb30338787428888886040516104c197969594939291906107d5565b60405180910390a25050505050565b60008054906101000a900473ffffffffffffffffffffffffffffffffffffffff1681565b600160009054906101000a900473ffffffffffffffffffffffffffffffffffffffff1681565b6000813590506105298161093b565b92915050565b60008083601f84011261054157600080fd5b8235905067ffffffffffffffff81111561055a57600080fd5b60208301915083600182028301111561057257600080fd5b9250929050565b60008135905061058881610952565b92915050565b60008151905061059d81610952565b92915050565b60008060008060008060a087890312156105bc57600080fd5b60006105ca89828a0161051a565b96505060206105db89828a0161051a565b95505060406105ec89828a01610579565b94505060606105fd89828a01610579565b935050608087013567ffffffffffffffff81111561061a57600080fd5b61062689828a0161052f565b92509250509295509295509295565b6000806040838503121561064857600080fd5b60006106568582860161051a565b925050602061066785828601610579565b9150509250929050565b60008060008060006080868803121561068957600080fd5b60006106978882890161051a565b95505060206106a888828901610579565b94505060406106b988828901610579565b935050606086013567ffffffffffffffff8111156106d657600080fd5b6106e28882890161052f565b92509250509295509295909350565b60006020828403121561070357600080fd5b60006107118482850161058e565b91505092915050565b610723816108af565b82525050565b610732816108c1565b82525050565b6000610744838561089e565b935061075183858461091b565b61075a8361092a565b840190509392505050565b61076e816108f7565b82525050565b61077d816108ed565b82525050565b6000602082019050610798600083018461071a565b92915050565b60006060820190506107b3600083018661071a565b6107c0602083018561071a565b6107cd6040830184610774565b949350505050565b600060c0820190506107ea600083018a61071a565b6107f7602083018961071a565b6108046040830188610774565b6108116060830187610774565b61081e6080830186610774565b81810360a0830152610831818486610738565b905098975050505050505050565b6000604082019050610854600083018561071a565b6108616020830184610774565b9392505050565b600060208201905061087d6000830184610729565b92915050565b60006020820190506108986000830184610765565b92915050565b600082825260208201905092915050565b60006108ba826108cd565b9050919050565b60008115159050919050565b600073ffffffffffffffffffffffffffffffffffffffff82169050919050565b6000819050919050565b600061090282610909565b9050919050565b6000610914826108cd565b9050919050565b82818337600083830152505050565b6000601f19601f8301169050919050565b610944816108af565b811461094f57600080fd5b50565b61095b816108ed565b811461096657600080fd5b5056fea26469706673582212205da67fddd74644e52c4189694203cd52ac0ecab28e7c3e3599df185022df650f64736f6c63430008000033",
  "immutableReferences": {},
  "source": "pragma solidity ^0.8.0;\n\nimport './BridgeBase.sol';\n\ncontract BridgeBsc is BridgeBase {\n  constructor(address token) BridgeBase(token) {}\n\n  \n  function burn(address to, uint amount, uint nonce, bytes calldata signature) external {\n    // require(processedNonces[msg.sender][nonce] == false, 'transfer already processed');\n    // processedNonces[msg.sender][nonce] = true;\n    token.burn(msg.sender, amount);\n    emit Transfer(\n      msg.sender,\n      to,\n      amount,\n      block.timestamp,\n      nonce,\n      signature,\n      Step.Burn\n    );\n  }\n\n  function mint(\n    address from, \n    address to, \n    uint amount, \n    uint nonce,\n    bytes calldata signature\n  ) external {\n    // bytes32 message = prefixed(keccak256(abi.encodePacked(\n    //   from, \n    //   to, \n    //   amount,\n    //   nonce\n    // )));\n    // require(recoverSigner(message, signature) == from , 'wrong signature');\n    // require(processedNonces[from][nonce] == false, 'transfer already processed');\n    // processedNonces[from][nonce] = true;\n    token.mint(to, amount);\n    emit Transfer(\n      from,\n      to,\n      amount,\n      block.timestamp,\n      nonce,\n      signature,\n      Step.Mint\n    );\n  }\n\n\n}\n",
  "sourcePath": "D:/Documents/myProject/INTERVIEW/dobby_bridgegaps/eth-bsc-decentralized-bridge/contracts/BridgeBsc.sol",
  "compiler": {
    "name": "solc",
    "version": "0.8.0+commit.c7dfd78e.Emscripten.clang"
  },
  "schemaVersion": "3.4.1",
  "updatedAt": "2021-12-22T06:18:49.323Z",
  "networkType": "ethereum",
  "devdoc": {
    "kind": "dev",
    "methods": {},
    "version": 1
  },
  "userdoc": {
    "kind": "user",
    "methods": {},
    "version": 1
  }
}